{"abi":[{"type":"function","name":"erc20Addresses","inputs":[{"name":"","type":"uint256","internalType":"uint256"}],"outputs":[{"name":"","type":"address","internalType":"address"}],"stateMutability":"view"},{"type":"function","name":"erc20DeployToken","inputs":[{"name":"config","type":"tuple","internalType":"struct ERC20TokenConfig","components":[{"name":"name","type":"string","internalType":"string"},{"name":"symbol","type":"string","internalType":"string"},{"name":"decimals","type":"uint8","internalType":"uint8"}]},{"name":"initialBalance","type":"uint256","internalType":"uint256"}],"outputs":[{"name":"","type":"address","internalType":"address"}],"stateMutability":"nonpayable"},{"type":"function","name":"getAllErc20Addresses","inputs":[],"outputs":[{"name":"","type":"address[]","internalType":"address[]"}],"stateMutability":"view"},{"type":"function","name":"getErc20Address","inputs":[{"name":"index","type":"uint256","internalType":"uint256"}],"outputs":[{"name":"","type":"address","internalType":"address"}],"stateMutability":"view"},{"type":"function","name":"getNumErc20s","inputs":[],"outputs":[{"name":"","type":"uint256","internalType":"uint256"}],"stateMutability":"view"},{"type":"function","name":"numERC20s","inputs":[],"outputs":[{"name":"","type":"uint256","internalType":"uint256"}],"stateMutability":"view"},{"type":"event","name":"ERC20NewToken","inputs":[{"name":"token","type":"address","indexed":true,"internalType":"address"},{"name":"name","type":"string","indexed":false,"internalType":"string"},{"name":"symbol","type":"string","indexed":false,"internalType":"string"},{"name":"creator","type":"address","indexed":true,"internalType":"address"},{"name":"initialSupply","type":"uint256","indexed":false,"internalType":"uint256"}],"anonymous":false},{"type":"error","name":"ERC20InvalidInput","inputs":[]}],"bytecode":{"object":"0x6080604052348015600e575f5ffd5b50612cb88061001c5f395ff3fe608060405234801561000f575f5ffd5b5060043610610060575f3560e01c80630e92073914610064578063341b0b5c146100945780635d0d0c4b146100b25780637dae7be4146100e2578063897716d614610100578063b509621a14610130575b5f5ffd5b61007e600480360381019061007991906104ef565b61014e565b60405161008b9190610559565b60405180910390f35b61009c61017d565b6040516100a99190610581565b60405180910390f35b6100cc60048036038101906100c791906104ef565b610183565b6040516100d99190610559565b60405180910390f35b6100ea61020b565b6040516100f79190610581565b60405180910390f35b61011a600480360381019061011591906107ad565b610214565b6040516101279190610559565b60405180910390f35b61013861039b565b60405161014591906108be565b60405180910390f35b5f602052805f5260405f205f915054906101000a900473ffffffffffffffffffffffffffffffffffffffff1681565b60015481565b5f5f8211801561019557506001548211155b6101d4576040517f08c379a00000000000000000000000000000000000000000000000000000000081526004016101cb90610938565b60405180910390fd5b5f5f8381526020019081526020015f205f9054906101000a900473ffffffffffffffffffffffffffffffffffffffff169050919050565b5f600154905090565b5f5f835f015151148061022b57505f836020015151145b8061023c57505f836040015160ff16145b15610273576040517f6482625a00000000000000000000000000000000000000000000000000000000815260040160405180910390fd5b5f835f01518460200151856040015133866040516102909061049e565b61029e9594939291906109b5565b604051809103905ff0801580156102b7573d5f5f3e3d5ffd5b50905060015f8154809291906102cc90610a41565b9190505550805f5f60015481526020019081526020015f205f6101000a81548173ffffffffffffffffffffffffffffffffffffffff021916908373ffffffffffffffffffffffffffffffffffffffff1602179055503373ffffffffffffffffffffffffffffffffffffffff168173ffffffffffffffffffffffffffffffffffffffff167f4b4abc046333538afb5b3416510bc38dd6c3c0ba329870924e221a0077aa49ac865f015187602001518760405161038993929190610a88565b60405180910390a38091505092915050565b60605f60015467ffffffffffffffff8111156103ba576103b96105ae565b5b6040519080825280602002602001820160405280156103e85781602001602082028036833780820191505090505b5090505f600190505b6001548111610496575f5f8281526020019081526020015f205f9054906101000a900473ffffffffffffffffffffffffffffffffffffffff16826001836104389190610acb565b8151811061044957610448610afe565b5b602002602001019073ffffffffffffffffffffffffffffffffffffffff16908173ffffffffffffffffffffffffffffffffffffffff1681525050808061048e90610a41565b9150506103f1565b508091505090565b61215780610b2c83390190565b5f604051905090565b5f5ffd5b5f5ffd5b5f819050919050565b6104ce816104bc565b81146104d8575f5ffd5b50565b5f813590506104e9816104c5565b92915050565b5f60208284031215610504576105036104b4565b5b5f610511848285016104db565b91505092915050565b5f73ffffffffffffffffffffffffffffffffffffffff82169050919050565b5f6105438261051a565b9050919050565b61055381610539565b82525050565b5f60208201905061056c5f83018461054a565b92915050565b61057b816104bc565b82525050565b5f6020820190506105945f830184610572565b92915050565b5f5ffd5b5f601f19601f8301169050919050565b7f4e487b71000000000000000000000000000000000000000000000000000000005f52604160045260245ffd5b6105e48261059e565b810181811067ffffffffffffffff82111715610603576106026105ae565b5b80604052505050565b5f6106156104ab565b905061062182826105db565b919050565b5f5ffd5b5f5ffd5b5f5ffd5b5f67ffffffffffffffff82111561064c5761064b6105ae565b5b6106558261059e565b9050602081019050919050565b828183375f83830152505050565b5f61068261067d84610632565b61060c565b90508281526020810184848401111561069e5761069d61062e565b5b6106a9848285610662565b509392505050565b5f82601f8301126106c5576106c461062a565b5b81356106d5848260208601610670565b91505092915050565b5f60ff82169050919050565b6106f3816106de565b81146106fd575f5ffd5b50565b5f8135905061070e816106ea565b92915050565b5f606082840312156107295761072861059a565b5b610733606061060c565b90505f82013567ffffffffffffffff81111561075257610751610626565b5b61075e848285016106b1565b5f83015250602082013567ffffffffffffffff81111561078157610780610626565b5b61078d848285016106b1565b60208301525060406107a184828501610700565b60408301525092915050565b5f5f604083850312156107c3576107c26104b4565b5b5f83013567ffffffffffffffff8111156107e0576107df6104b8565b5b6107ec85828601610714565b92505060206107fd858286016104db565b9150509250929050565b5f81519050919050565b5f82825260208201905092915050565b5f819050602082019050919050565b61083981610539565b82525050565b5f61084a8383610830565b60208301905092915050565b5f602082019050919050565b5f61086c82610807565b6108768185610811565b935061088183610821565b805f5b838110156108b1578151610898888261083f565b97506108a383610856565b925050600181019050610884565b5085935050505092915050565b5f6020820190508181035f8301526108d68184610862565b905092915050565b5f82825260208201905092915050565b7f496e76616c696420696e646578000000000000000000000000000000000000005f82015250565b5f610922600d836108de565b915061092d826108ee565b602082019050919050565b5f6020820190508181035f83015261094f81610916565b9050919050565b5f81519050919050565b8281835e5f83830152505050565b5f61097882610956565b61098281856108de565b9350610992818560208601610960565b61099b8161059e565b840191505092915050565b6109af816106de565b82525050565b5f60a0820190508181035f8301526109cd818861096e565b905081810360208301526109e1818761096e565b90506109f060408301866109a6565b6109fd606083018561054a565b610a0a6080830184610572565b9695505050505050565b7f4e487b71000000000000000000000000000000000000000000000000000000005f52601160045260245ffd5b5f610a4b826104bc565b91507fffffffffffffffffffffffffffffffffffffffffffffffffffffffffffffffff8203610a7d57610a7c610a14565b5b600182019050919050565b5f6060820190508181035f830152610aa0818661096e565b90508181036020830152610ab4818561096e565b9050610ac36040830184610572565b949350505050565b5f610ad5826104bc565b9150610ae0836104bc565b9250828203905081811115610af857610af7610a14565b5b92915050565b7f4e487b71000000000000000000000000000000000000000000000000000000005f52603260045260245ffdfe608060405234801561000f575f5ffd5b50604051612157380380612157833981810160405281019061003191906108d1565b81858581600390816100439190610b87565b5080600490816100539190610b87565b5050505f73ffffffffffffffffffffffffffffffffffffffff168173ffffffffffffffffffffffffffffffffffffffff16036100c6575f6040517f1e4fbdf70000000000000000000000000000000000000000000000000000000081526004016100bd9190610c65565b60405180910390fd5b6100d58161011460201b60201c565b5082600560146101000a81548160ff021916908360ff1602179055505f81111561010a5761010982826101d760201b60201c565b5b5050505050610de3565b5f60055f9054906101000a900473ffffffffffffffffffffffffffffffffffffffff1690508160055f6101000a81548173ffffffffffffffffffffffffffffffffffffffff021916908373ffffffffffffffffffffffffffffffffffffffff1602179055508173ffffffffffffffffffffffffffffffffffffffff168173ffffffffffffffffffffffffffffffffffffffff167f8be0079c531659141344cd1fd0a4f28419497f9722a3daafe3b4186f6b6457e060405160405180910390a35050565b5f73ffffffffffffffffffffffffffffffffffffffff168273ffffffffffffffffffffffffffffffffffffffff1603610247575f6040517fec442f0500000000000000000000000000000000000000000000000000000000815260040161023e9190610c65565b60405180910390fd5b6102585f838361025c60201b60201c565b5050565b61026d83838361037260201b60201c565b5f73ffffffffffffffffffffffffffffffffffffffff168373ffffffffffffffffffffffffffffffffffffffff16141580156102d557505f73ffffffffffffffffffffffffffffffffffffffff168273ffffffffffffffffffffffffffffffffffffffff1614155b1561036d578173ffffffffffffffffffffffffffffffffffffffff168373ffffffffffffffffffffffffffffffffffffffff167f0b7ba42c3452d60ca7a03b82c51a2e3c3c82bb137e4eff372526fe296ff142948361033861058b60201b60201c565b61034661061b60201b60201c565b6103546106ab60201b60201c565b6040516103649493929190610ce4565b60405180910390a35b505050565b5f73ffffffffffffffffffffffffffffffffffffffff168373ffffffffffffffffffffffffffffffffffffffff16036103c2578060025f8282546103b69190610d62565b92505081905550610490565b5f5f5f8573ffffffffffffffffffffffffffffffffffffffff1673ffffffffffffffffffffffffffffffffffffffff1681526020019081526020015f205490508181101561044b578381836040517fe450d38c00000000000000000000000000000000000000000000000000000000815260040161044293929190610d95565b60405180910390fd5b8181035f5f8673ffffffffffffffffffffffffffffffffffffffff1673ffffffffffffffffffffffffffffffffffffffff1681526020019081526020015f2081905550505b5f73ffffffffffffffffffffffffffffffffffffffff168273ffffffffffffffffffffffffffffffffffffffff16036104d7578060025f8282540392505081905550610521565b805f5f8473ffffffffffffffffffffffffffffffffffffffff1673ffffffffffffffffffffffffffffffffffffffff1681526020019081526020015f205f82825401925050819055505b8173ffffffffffffffffffffffffffffffffffffffff168373ffffffffffffffffffffffffffffffffffffffff167fddf252ad1be2c89b69c2b068fc378daa952ba7f163c4a11628f55a4df523b3ef8360405161057e9190610dca565b60405180910390a3505050565b60606003805461059a906109b7565b80601f01602080910402602001604051908101604052809291908181526020018280546105c6906109b7565b80156106115780601f106105e857610100808354040283529160200191610611565b820191905f5260205f20905b8154815290600101906020018083116105f457829003601f168201915b5050505050905090565b60606004805461062a906109b7565b80601f0160208091040260200160405190810160405280929190818152602001828054610656906109b7565b80156106a15780601f10610678576101008083540402835291602001916106a1565b820191905f5260205f20905b81548152906001019060200180831161068457829003601f168201915b5050505050905090565b5f600560149054906101000a900460ff16905090565b5f604051905090565b5f5ffd5b5f5ffd5b5f5ffd5b5f5ffd5b5f601f19601f8301169050919050565b7f4e487b71000000000000000000000000000000000000000000000000000000005f52604160045260245ffd5b610720826106da565b810181811067ffffffffffffffff8211171561073f5761073e6106ea565b5b80604052505050565b5f6107516106c1565b905061075d8282610717565b919050565b5f67ffffffffffffffff82111561077c5761077b6106ea565b5b610785826106da565b9050602081019050919050565b8281835e5f83830152505050565b5f6107b26107ad84610762565b610748565b9050828152602081018484840111156107ce576107cd6106d6565b5b6107d9848285610792565b509392505050565b5f82601f8301126107f5576107f46106d2565b5b81516108058482602086016107a0565b91505092915050565b5f60ff82169050919050565b6108238161080e565b811461082d575f5ffd5b50565b5f8151905061083e8161081a565b92915050565b5f73ffffffffffffffffffffffffffffffffffffffff82169050919050565b5f61086d82610844565b9050919050565b61087d81610863565b8114610887575f5ffd5b50565b5f8151905061089881610874565b92915050565b5f819050919050565b6108b08161089e565b81146108ba575f5ffd5b50565b5f815190506108cb816108a7565b92915050565b5f5f5f5f5f60a086880312156108ea576108e96106ca565b5b5f86015167ffffffffffffffff811115610907576109066106ce565b5b610913888289016107e1565b955050602086015167ffffffffffffffff811115610934576109336106ce565b5b610940888289016107e1565b945050604061095188828901610830565b93505060606109628882890161088a565b9250506080610973888289016108bd565b9150509295509295909350565b5f81519050919050565b7f4e487b71000000000000000000000000000000000000000000000000000000005f52602260045260245ffd5b5f60028204905060018216806109ce57607f821691505b6020821081036109e1576109e061098a565b5b50919050565b5f819050815f5260205f209050919050565b5f6020601f8301049050919050565b5f82821b905092915050565b5f60088302610a437fffffffffffffffffffffffffffffffffffffffffffffffffffffffffffffffff82610a08565b610a4d8683610a08565b95508019841693508086168417925050509392505050565b5f819050919050565b5f610a88610a83610a7e8461089e565b610a65565b61089e565b9050919050565b5f819050919050565b610aa183610a6e565b610ab5610aad82610a8f565b848454610a14565b825550505050565b5f5f905090565b610acc610abd565b610ad7818484610a98565b505050565b5b81811015610afa57610aef5f82610ac4565b600181019050610add565b5050565b601f821115610b3f57610b10816109e7565b610b19846109f9565b81016020851015610b28578190505b610b3c610b34856109f9565b830182610adc565b50505b505050565b5f82821c905092915050565b5f610b5f5f1984600802610b44565b1980831691505092915050565b5f610b778383610b50565b9150826002028217905092915050565b610b9082610980565b67ffffffffffffffff811115610ba957610ba86106ea565b5b610bb382546109b7565b610bbe828285610afe565b5f60209050601f831160018114610bef575f8415610bdd578287015190505b610be78582610b6c565b865550610c4e565b601f198416610bfd866109e7565b5f5b82811015610c2457848901518255600182019150602085019450602081019050610bff565b86831015610c415784890151610c3d601f891682610b50565b8355505b6001600288020188555050505b505050505050565b610c5f81610863565b82525050565b5f602082019050610c785f830184610c56565b92915050565b610c878161089e565b82525050565b5f82825260208201905092915050565b5f610ca782610980565b610cb18185610c8d565b9350610cc1818560208601610792565b610cca816106da565b840191505092915050565b610cde8161080e565b82525050565b5f608082019050610cf75f830187610c7e565b8181036020830152610d098186610c9d565b90508181036040830152610d1d8185610c9d565b9050610d2c6060830184610cd5565b95945050505050565b7f4e487b71000000000000000000000000000000000000000000000000000000005f52601160045260245ffd5b5f610d6c8261089e565b9150610d778361089e565b9250828201905080821115610d8f57610d8e610d35565b5b92915050565b5f606082019050610da85f830186610c56565b610db56020830185610c7e565b610dc26040830184610c7e565b949350505050565b5f602082019050610ddd5f830184610c7e565b92915050565b61136780610df05f395ff3fe608060405234801561000f575f5ffd5b50600436106100e8575f3560e01c806370a082311161008a57806395d89b411161006457806395d89b4114610236578063a9059cbb14610254578063dd62ed3e14610284578063f2fde38b146102b4576100e8565b806370a08231146101de578063715018a61461020e5780638da5cb5b14610218576100e8565b806323b872dd116100c657806323b872dd14610158578063313ce5671461018857806340c10f19146101a657806342966c68146101c2576100e8565b806306fdde03146100ec578063095ea7b31461010a57806318160ddd1461013a575b5f5ffd5b6100f46102d0565b6040516101019190610f64565b60405180910390f35b610124600480360381019061011f9190611015565b610360565b604051610131919061106d565b60405180910390f35b610142610382565b60405161014f9190611095565b60405180910390f35b610172600480360381019061016d91906110ae565b61038b565b60405161017f919061106d565b60405180910390f35b6101906103b9565b60405161019d9190611119565b60405180910390f35b6101c060048036038101906101bb9190611015565b6103cf565b005b6101dc60048036038101906101d79190611132565b6103e5565b005b6101f860048036038101906101f3919061115d565b6103f2565b6040516102059190611095565b60405180910390f35b610216610437565b005b61022061044a565b60405161022d9190611197565b60405180910390f35b61023e610472565b60405161024b9190610f64565b60405180910390f35b61026e60048036038101906102699190611015565b610502565b60405161027b919061106d565b60405180910390f35b61029e600480360381019061029991906111b0565b610524565b6040516102ab9190611095565b60405180910390f35b6102ce60048036038101906102c9919061115d565b6105a6565b005b6060600380546102df9061121b565b80601f016020809104026020016040519081016040528092919081815260200182805461030b9061121b565b80156103565780601f1061032d57610100808354040283529160200191610356565b820191905f5260205f20905b81548152906001019060200180831161033957829003601f168201915b5050505050905090565b5f5f61036a61062a565b9050610377818585610631565b600191505092915050565b5f600254905090565b5f5f61039561062a565b90506103a2858285610643565b6103ad8585856106d6565b60019150509392505050565b5f600560149054906101000a900460ff16905090565b6103d76107c6565b6103e1828261084d565b5050565b6103ef33826108cc565b50565b5f5f5f8373ffffffffffffffffffffffffffffffffffffffff1673ffffffffffffffffffffffffffffffffffffffff1681526020019081526020015f20549050919050565b61043f6107c6565b6104485f61094b565b565b5f60055f9054906101000a900473ffffffffffffffffffffffffffffffffffffffff16905090565b6060600480546104819061121b565b80601f01602080910402602001604051908101604052809291908181526020018280546104ad9061121b565b80156104f85780601f106104cf576101008083540402835291602001916104f8565b820191905f5260205f20905b8154815290600101906020018083116104db57829003601f168201915b5050505050905090565b5f5f61050c61062a565b90506105198185856106d6565b600191505092915050565b5f60015f8473ffffffffffffffffffffffffffffffffffffffff1673ffffffffffffffffffffffffffffffffffffffff1681526020019081526020015f205f8373ffffffffffffffffffffffffffffffffffffffff1673ffffffffffffffffffffffffffffffffffffffff1681526020019081526020015f2054905092915050565b6105ae6107c6565b5f73ffffffffffffffffffffffffffffffffffffffff168173ffffffffffffffffffffffffffffffffffffffff160361061e575f6040517f1e4fbdf70000000000000000000000000000000000000000000000000000000081526004016106159190611197565b60405180910390fd5b6106278161094b565b50565b5f33905090565b61063e8383836001610a0e565b505050565b5f61064e8484610524565b90507fffffffffffffffffffffffffffffffffffffffffffffffffffffffffffffffff8110156106d057818110156106c1578281836040517ffb8f41b20000000000000000000000000000000000000000000000000000000081526004016106b89392919061124b565b60405180910390fd5b6106cf84848484035f610a0e565b5b50505050565b5f73ffffffffffffffffffffffffffffffffffffffff168373ffffffffffffffffffffffffffffffffffffffff1603610746575f6040517f96c6fd1e00000000000000000000000000000000000000000000000000000000815260040161073d9190611197565b60405180910390fd5b5f73ffffffffffffffffffffffffffffffffffffffff168273ffffffffffffffffffffffffffffffffffffffff16036107b6575f6040517fec442f050000000000000000000000000000000000000000000000000000000081526004016107ad9190611197565b60405180910390fd5b6107c1838383610bdd565b505050565b6107ce61062a565b73ffffffffffffffffffffffffffffffffffffffff166107ec61044a565b73ffffffffffffffffffffffffffffffffffffffff161461084b5761080f61062a565b6040517f118cdaa70000000000000000000000000000000000000000000000000000000081526004016108429190611197565b60405180910390fd5b565b5f73ffffffffffffffffffffffffffffffffffffffff168273ffffffffffffffffffffffffffffffffffffffff16036108bd575f6040517fec442f050000000000000000000000000000000000000000000000000000000081526004016108b49190611197565b60405180910390fd5b6108c85f8383610bdd565b5050565b5f73ffffffffffffffffffffffffffffffffffffffff168273ffffffffffffffffffffffffffffffffffffffff160361093c575f6040517f96c6fd1e0000000000000000000000000000000000000000000000000000000081526004016109339190611197565b60405180910390fd5b610947825f83610bdd565b5050565b5f60055f9054906101000a900473ffffffffffffffffffffffffffffffffffffffff1690508160055f6101000a81548173ffffffffffffffffffffffffffffffffffffffff021916908373ffffffffffffffffffffffffffffffffffffffff1602179055508173ffffffffffffffffffffffffffffffffffffffff168173ffffffffffffffffffffffffffffffffffffffff167f8be0079c531659141344cd1fd0a4f28419497f9722a3daafe3b4186f6b6457e060405160405180910390a35050565b5f73ffffffffffffffffffffffffffffffffffffffff168473ffffffffffffffffffffffffffffffffffffffff1603610a7e575f6040517fe602df05000000000000000000000000000000000000000000000000000000008152600401610a759190611197565b60405180910390fd5b5f73ffffffffffffffffffffffffffffffffffffffff168373ffffffffffffffffffffffffffffffffffffffff1603610aee575f6040517f94280d62000000000000000000000000000000000000000000000000000000008152600401610ae59190611197565b60405180910390fd5b8160015f8673ffffffffffffffffffffffffffffffffffffffff1673ffffffffffffffffffffffffffffffffffffffff1681526020019081526020015f205f8573ffffffffffffffffffffffffffffffffffffffff1673ffffffffffffffffffffffffffffffffffffffff1681526020019081526020015f20819055508015610bd7578273ffffffffffffffffffffffffffffffffffffffff168473ffffffffffffffffffffffffffffffffffffffff167f8c5be1e5ebec7d5bd14f71427d1e84f3dd0314c0f7b2291e5b200ac8c7c3b92584604051610bce9190611095565b60405180910390a35b50505050565b610be8838383610cdb565b5f73ffffffffffffffffffffffffffffffffffffffff168373ffffffffffffffffffffffffffffffffffffffff1614158015610c5057505f73ffffffffffffffffffffffffffffffffffffffff168273ffffffffffffffffffffffffffffffffffffffff1614155b15610cd6578173ffffffffffffffffffffffffffffffffffffffff168373ffffffffffffffffffffffffffffffffffffffff167f0b7ba42c3452d60ca7a03b82c51a2e3c3c82bb137e4eff372526fe296ff1429483610cad6102d0565b610cb5610472565b610cbd6103b9565b604051610ccd9493929190611280565b60405180910390a35b505050565b5f73ffffffffffffffffffffffffffffffffffffffff168373ffffffffffffffffffffffffffffffffffffffff1603610d2b578060025f828254610d1f91906112fe565b92505081905550610df9565b5f5f5f8573ffffffffffffffffffffffffffffffffffffffff1673ffffffffffffffffffffffffffffffffffffffff1681526020019081526020015f2054905081811015610db4578381836040517fe450d38c000000000000000000000000000000000000000000000000000000008152600401610dab9392919061124b565b60405180910390fd5b8181035f5f8673ffffffffffffffffffffffffffffffffffffffff1673ffffffffffffffffffffffffffffffffffffffff1681526020019081526020015f2081905550505b5f73ffffffffffffffffffffffffffffffffffffffff168273ffffffffffffffffffffffffffffffffffffffff1603610e40578060025f8282540392505081905550610e8a565b805f5f8473ffffffffffffffffffffffffffffffffffffffff1673ffffffffffffffffffffffffffffffffffffffff1681526020019081526020015f205f82825401925050819055505b8173ffffffffffffffffffffffffffffffffffffffff168373ffffffffffffffffffffffffffffffffffffffff167fddf252ad1be2c89b69c2b068fc378daa952ba7f163c4a11628f55a4df523b3ef83604051610ee79190611095565b60405180910390a3505050565b5f81519050919050565b5f82825260208201905092915050565b8281835e5f83830152505050565b5f601f19601f8301169050919050565b5f610f3682610ef4565b610f408185610efe565b9350610f50818560208601610f0e565b610f5981610f1c565b840191505092915050565b5f6020820190508181035f830152610f7c8184610f2c565b905092915050565b5f5ffd5b5f73ffffffffffffffffffffffffffffffffffffffff82169050919050565b5f610fb182610f88565b9050919050565b610fc181610fa7565b8114610fcb575f5ffd5b50565b5f81359050610fdc81610fb8565b92915050565b5f819050919050565b610ff481610fe2565b8114610ffe575f5ffd5b50565b5f8135905061100f81610feb565b92915050565b5f5f6040838503121561102b5761102a610f84565b5b5f61103885828601610fce565b925050602061104985828601611001565b9150509250929050565b5f8115159050919050565b61106781611053565b82525050565b5f6020820190506110805f83018461105e565b92915050565b61108f81610fe2565b82525050565b5f6020820190506110a85f830184611086565b92915050565b5f5f5f606084860312156110c5576110c4610f84565b5b5f6110d286828701610fce565b93505060206110e386828701610fce565b92505060406110f486828701611001565b9150509250925092565b5f60ff82169050919050565b611113816110fe565b82525050565b5f60208201905061112c5f83018461110a565b92915050565b5f6020828403121561114757611146610f84565b5b5f61115484828501611001565b91505092915050565b5f6020828403121561117257611171610f84565b5b5f61117f84828501610fce565b91505092915050565b61119181610fa7565b82525050565b5f6020820190506111aa5f830184611188565b92915050565b5f5f604083850312156111c6576111c5610f84565b5b5f6111d385828601610fce565b92505060206111e485828601610fce565b9150509250929050565b7f4e487b71000000000000000000000000000000000000000000000000000000005f52602260045260245ffd5b5f600282049050600182168061123257607f821691505b602082108103611245576112446111ee565b5b50919050565b5f60608201905061125e5f830186611188565b61126b6020830185611086565b6112786040830184611086565b949350505050565b5f6080820190506112935f830187611086565b81810360208301526112a58186610f2c565b905081810360408301526112b98185610f2c565b90506112c8606083018461110a565b95945050505050565b7f4e487b71000000000000000000000000000000000000000000000000000000005f52601160045260245ffd5b5f61130882610fe2565b915061131383610fe2565b925082820190508082111561132b5761132a6112d1565b5b9291505056fea2646970667358221220041718ec9b0de20a8171b964333a87dec3ef50e8348cd8c9bc85e7f38f9402f064736f6c634300081b0033a26469706673582212202460e802f96025197106fdc0465d7a76ed8cc22c1ecf88d6fba18488d752642464736f6c634300081b0033","linkReferences":{}},"methodIdentifiers":{"erc20Addresses(uint256)":"0e920739","erc20DeployToken((string,string,uint8),uint256)":"897716d6","getAllErc20Addresses()":"b509621a","getErc20Address(uint256)":"5d0d0c4b","getNumErc20s()":"7dae7be4","numERC20s()":"341b0b5c"},"id":6}